:100000000C942A000C9447000C9447000C94470071
:100010000C9447000C9447000C9447000C94470044
:100020000C9447000C9447000C9447000C94470034
:100030000C9447000C9447000C9447000C94470024
:100040000C9447000C9447000C9447000C94470014
:100050000C94470011241FBECFE5D8E0DEBFCDBF12
:1000600010E0A0E6B0E0EEE2FCE302C005900D92E5
:10007000A838B107D9F710E0A8E8B0E001C01D9298
:10008000A239B107E1F70E946C0E0C94151E0C9476
:100090000000EF92FF920F931F937B018C0120E0F1
:1000A00030E040E05FE40E94490388238CF0C801FF
:1000B000B70120E030E040E05FE40E94C1010E940F
:1000C000A9039B01AC01205030404040504806C07D
:1000D000C801B7010E94A9039B01AC01B901CA0183
:1000E0001F910F91FF90EF900895A0E0B0E0EBE733
:1000F000F0E00C94DE1DDC012B01FA019C919230A2
:1001000008F439C1EB018881823008F433C194309E
:1001100069F4843009F02FC111969C91119789815F
:10012000981709F428C1A0E6B0E025C1843009F48D
:1001300021C18230A9F4923009F01DC19A01AD01AC
:1001400088E0EA010990AE01E90109929E0181501F
:10015000C1F7E201898111969C918923818308C1AD
:10016000923009F407C112962D903C901397EB0141
:100170008A819B811496AD90BD90CD90DC901797AD
:10018000EC80FD800E811F819101281B390BB90184
:1001900037FF04C066277727621B730B6032710537
:1001A0000CF061C0121613066CF537014801062EDB
:1001B00004C096948794779467940A94D2F721E0C8
:1001C00030E040E050E004C0220F331F441F551FB1
:1001D0006A95D2F721503040404050402E213F21B7
:1001E00040235123211531054105510521F021E01E
:1001F00030E040E050E079018A01E628F72808293C
:1002000019293CC0232BD1F1260E371E350146019A
:10021000062E04C096948794779467940A94D2F734
:1002200021E030E040E050E004C0220F331F441FC3
:10023000551F6A95D2F721503040404050402A2146
:100240003B214C215D21211531054105510521F04E
:1002500021E030E040E050E059016A01A628B728CB
:10026000C828D9280BC0821593052CF01C01AA249C
:10027000BB24650103C0EE24FF24870111969C91E5
:10028000D20111968C91981709F445C0992339F041
:10029000A80197012A193B094C095D0906C0A6016E
:1002A00095012E193F09400B510B57FD08C01182D3
:1002B0003382228224833583468357831DC081E0A5
:1002C00081833382228288279927DC01821B930B4A
:1002D000A40BB50B84839583A683B7830DC0220F2F
:1002E000331F441F551F24833583468357838281E0
:1002F000938101979383828324813581468157813D
:10030000DA01C9010197A109B1098F5F9F4FAF4F72
:10031000BF4328F30BC0918333822282EA0CFB1C7B
:100320000C1D1D1DE482F5820683178383E0808304
:10033000248135814681578157FF1AC0C901AA27F8
:1003400097FDA095BA2F81709070A070B0705695EF
:10035000479537952795822B932BA42BB52B848318
:100360009583A683B7838281938101969383828349
:10037000DF0101C0D201CD01CDB7DEB7E2E10C94BF
:10038000FA1DA0E2B0E0E7ECF1E00C94EA1D69830D
:100390007A838B839C832D833E834F835887E9E048
:1003A000EE2EF12CEC0EFD1ECE010196B7010E943F
:1003B000D2048E010F5E1F4FCE010596B8010E9438
:1003C000D2048A8991E089278A8BC701B801AE01DE
:1003D000475E5F4F0E9475000E94FD03A096E6E015
:1003E0000C94061EA0E2B0E0E8EFF1E00C94EA1DE8
:1003F00069837A838B839C832D833E834F835887C5
:10040000F9E0EF2EF12CEC0EFD1ECE010196B701A6
:100410000E94D2048E010F5E1F4FCE010596B801D7
:100420000E94D204C701B801AE01475E5F4F0E942F
:1004300075000E94FD03A096E6E00C94061EA0E263
:10044000B0E0E5E2F2E00C94DE1D69837A838B83F1
:100450009C832D833E834F835887CE010196BE0136
:10046000675F7F4F0E94D204CE010596BE016F5E8A
:100470007F4F0E94D2049985923088F0898982301A
:10048000C8F0943019F4823051F404C0843029F457
:10049000923081F480E690E0C6C0923049F420E0CA
:1004A0009A858A89981321E02A87CE010996BBC0D4
:1004B000823049F420E09A858A89981321E02A8BBA
:1004C000CE014196B0C02D843E844F8458886D88FB
:1004D0007E888F88988CEE24FF248701AA24BB2471
:1004E000650140E050E060E070E0E0E0F0E0C10174
:1004F00081709070892BE9F0E60CF71C081D191D1E
:100500009A01AB012A0D3B1D4C1D5D1D80E090E062
:10051000A0E0B0E0E614F7040805190520F481E036
:1005200090E0A0E0B0E0BA01A901480F591F6A1F8E
:100530007B1FAA0CBB1CCC1CDD1C97FE08C081E0F5
:1005400090E0A0E0B0E0A82AB92ACA2ADB2A3196B6
:10055000E032F10549F0660C771C881C991C569412
:10056000479437942794C3CFFA85EA892B893C892D
:100570008B859C85280F391F2E5F3F4F17C0CA01FE
:1005800081709070892B61F016950795F794E79428
:1005900080E090E0A0E0B0E8E82AF92A0A2B1B2BC3
:1005A00076956795579547952F5F3F4F77FDE7CF36
:1005B0000CC0440F551F661F771F17FD4160EE0CDE
:1005C000FF1C001F111F21503040403090E05907A0
:1005D00090E0690790E4790760F32B8F3C8FDB0193
:1005E000CA018F779070A070B07080349105A1051A
:1005F000B10561F447FD0AC0E114F10401051105DC
:1006000029F0405C5F4F6F4F7F4F40781A8EFE1786
:1006100011F081E08A8F4D8F5E8F6F8F78A383E01A
:10062000898FCE0149960E94FD03A096E2E10C94C9
:10063000FA1DA8E1B0E0EFE1F3E00C94EA1D698354
:100640007A838B839C832D833E834F83588789E0F5
:10065000E82EF12CEC0EFD1ECE010196B7010E9492
:10066000D2048E010F5E1F4FCE010596B8010E9485
:10067000D2048985823040F08989823028F0C70110
:10068000B8010E944A0501C08FEF6896E6E00C941D
:10069000061EA8E1B0E0EFE4F3E00C94EA1D6983E4
:1006A0007A838B839C832D833E834F83588789E095
:1006B000E82EF12CEC0EFD1ECE010196B7010E9432
:1006C000D2048E010F5E1F4FCE010596B8010E9425
:1006D000D2048985823040F08989823028F0C701B0
:1006E000B8010E944A0501C08FEF6896E6E00C94BD
:1006F000061EA8E1B0E0EFE7F3E00C94EA1D698381
:100700007A838B839C832D833E834F83588789E034
:10071000E82EF12CEC0EFD1ECE010196B7010E94D1
:10072000D2048E010F5E1F4FCE010596B8010E94C4
:10073000D2048985823040F08989823028F0C7014F
:10074000B8010E944A0501C081E06896E6E00C9479
:10075000061EACE0B0E0EFEAF3E00C94EE1D698316
:100760007A838B839C83CE010196BE016B5F7F4FA2
:100770000E94D2048D81823061F1823050F1843048
:1007800021F48E81882351F12EC02F81388537FDC9
:1007900020C06E812F3131051CF06623F9F023C093
:1007A0008EE190E0821B930B29853A854B855C8511
:1007B00004C056954795379527958A95D2F76623B5
:1007C000B1F050954095309521953F4F4F4F5F4F79
:1007D0000EC020E030E040E050E009C02FEF3FEFD6
:1007E0004FEF5FE704C020E030E040E050E8B9019F
:1007F000CA012C96E2E00C940A1EDF92EF92FF925F
:100800000F931F93FC01E480F58006811781D1804E
:100810008081823048F480E090E0A0E1B0E0E82AF6
:10082000F92A0A2B1B2BA5C0843009F49FC0823003
:1008300021F4EE24FF24870105C0E114F104010531
:10084000110519F4E0E0F0E096C0628173819FEF3A
:10085000623879070CF05BC022E83FEF261B370BAC
:100860002A3131052CF020E030E040E050E02AC091
:10087000B801A701022E04C0769567955795479554
:100880000A94D2F781E090E0A0E0B0E004C0880FC5
:10089000991FAA1FBB1F2A95D2F70197A109B10979
:1008A0008E219F21A023B1230097A105B10521F03E
:1008B00081E090E0A0E0B0E09A01AB01282B392B59
:1008C0004A2B5B2BDA01C9018F779070A070B07052
:1008D00080349105A105B10539F427FF09C0205CDA
:1008E0003F4F4F4F5F4F04C0215C3F4F4F4F5F4F13
:1008F000E0E0F0E02030A0E03A07A0E04A07A0E402
:100900005A0710F0E1E0F0E079018A0127C0603871
:10091000710564F5FB01E158FF4FD801C7018F77DE
:100920009070A070B07080349105A105B10539F4C4
:10093000E7FE0DC080E490E0A0E0B0E004C08FE3EB
:1009400090E0A0E0B0E0E80EF91E0A1F1B1F17FFA1
:1009500005C016950795F794E794319687E01695AC
:100960000795F794E7948A95D1F705C0EE24FF2404
:100970008701EFEFF0E06E2F679566276795902F60
:100980009F77D794DD24D7948E2F8695492F462BB9
:10099000582F5D29B701CA011F910F91FF90EF9069
:1009A000DF900895FC01DB01408151812281622F9B
:1009B0006F7770E0221F2227221F9381892F880FD3
:1009C000822B282F30E0991F9927991F11969C930D
:1009D000119721153105A9F54115510561057105DD
:1009E00011F482E037C082E89FEF13969C938E93B8
:1009F00012979A01AB0167E0220F331F441F551F66
:100A00006A95D1F783E08C930DC0220F331F441FEA
:100A1000551F12968D919C911397019713969C9355
:100A20008E931297203080E0380780E0480780E4FA
:100A3000580758F314962D933D934D935C93179755
:100A400008952F3F310579F4411551056105710570
:100A500019F484E08C93089564FF03C081E08C93C3
:100A600012C01C9210C02F57304013963C932E9307
:100A7000129783E08C9387E0440F551F661F771F02
:100A80008A95D1F7706414964D935D936D937C9322
:100A9000179708951F93DC01FB019C91923008F495
:100AA00047C08081823008F443C0943051F41196DD
:100AB0001C91843099F58181682F70E0611B710968
:100AC0003FC0843021F0923031F48230B9F181811D
:100AD000882389F12DC011961C9111978230F1F075
:100AE00081811817D9F412962D913C911397828128
:100AF00093818217930794F028173907BCF0149656
:100B00008D919D910D90BC91A02D248135814681C0
:100B10005781281739074A075B0718F4112341F05A
:100B20000AC082179307A407B50740F4112319F0F0
:100B300061E070E005C06FEF7FEF02C060E070E041
:100B4000CB011F910895DF93CF93CDB7DEB782E03D
:100B500060E040E00E94051982E060E041E00E9410
:100B6000171A82E061E040E00E94051982E061E02E
:100B700041E00E94171A82E062E040E00E940519FD
:100B800082E062E041E00E94171A82E063E040E008
:100B90000E94051982E063E041E00E94171A82E09A
:100BA00064E041E00E94051982E064E041E00E94B7
:100BB000171A82E065E041E00E94051982E065E0D5
:100BC00041E00E94171A82E066E041E00E940519A8
:100BD00082E066E041E00E94171A82E067E041E0AF
:100BE0000E94051982E067E041E00E94171ACF9148
:100BF000DF910895DF93CF93CDB7DEB763970FB63C
:100C0000F894DEBF0FBECDBF84E1898B84E0888B72
:100C1000B8C082E0688940E00E94171A1F86A5C00C
:100C20009E012E5E3F4F82E06F85A9010E94251B29
:100C30008A89882309F096C08F85482F50E08889DB
:100C4000882F90E09C0124503040CA01880F991FE2
:100C5000880F991F820F931FFC01E859FF4F808175
:100C6000898B08C09E012E5E3F4F82E06F85A901EF
:100C70000E94251B8A898823A9F380E090E0A0EADE
:100C8000B1E48B879C87AD87BE876B857C858D851E
:100C90009E8520E030E04AEF54E40E941F02DC0110
:100CA000CB018F839887A987BA876F8178858985DB
:100CB0009A8520E030E040E85FE30E9479038823D2
:100CC0002CF481E090E09E838D833FC06F81788516
:100CD00089859A8520E03FEF4FE757E40E9419038A
:100CE00018164CF56B857C858D859E8520E030E05F
:100CF00040E251E40E941F02DC01CB01BC01CD01A6
:100D00000E944900DC01CB019E838D830FC088ECDB
:100D100090E09C838B838B819C810197F1F79C836E
:100D20008B838D819E8101979E838D838D819E8192
:100D3000009769F714C06F81788589859A850E942C
:100D40004900DC01CB019E838D838D819E819A8336
:100D5000898389819A810197F1F79A8389838989A7
:100D60008B8B15C08F858F5F8F878F85843008F4BC
:100D700057CF82E0688941E00E94171A88898F5F07
:100D8000888B8889883008F444CF89898B8B8B893C
:100D900063960FB6F894DEBF0FBECDBFCF91DF9143
:100DA0000895DF93CF93CDB7DEB7E9970FB6F894E8
:100DB000DEBF0FBECDBF89AF80E063E040E00E94A0
:100DC000171A89AD82958F70982F917081E060E03D
:100DD000492F0E94171A89AD829586958770982FA2
:100DE000917081E061E0492F0E94171A89AD8295C8
:100DF000869586958370982F917081E062E0492FE7
:100E00000E94171A89AD982F991F9927991F81E081
:100E100064E0492F0E94171A80E062E041E00E94DE
:100E2000171A80E090E0A0E0B0E48DAB9EABAFABD2
:100E3000B8AF6DA97EA98FA998AD20E030E04AEF48
:100E400054E40E941F02DC01CB0189AB9AABABAB2F
:100E5000BCAB69A97AA98BA99CA920E030E040E845
:100E60005FE30E94790388232CF481E090E098AB43
:100E70008FA73FC069A97AA98BA99CA920E03FEF61
:100E80004FE757E40E94190318164CF56DA97EA987
:100E90008FA998AD20E030E040E251E40E941F02AB
:100EA000DC01CB01BC01CD010E944900DC01CB017A
:100EB00098AB8FA70FC088EC90E09EA78DA78DA55B
:100EC0009EA50197F1F79EA78DA78FA598A90197D9
:100ED00098AB8FA78FA598A9009769F714C069A947
:100EE0007AA98BA99CA90E944900DC01CB0198AB8F
:100EF0008FA78FA598A99CA78BA78BA59CA50197C9
:100F0000F1F79CA78BA780E062E040E00E94171AEF
:100F100080E090E0A0EAB0E48FA398A7A9A7BAA7C1
:100F20006FA178A589A59AA520E030E04AEF54E4A6
:100F30000E941F02DC01CB018BA39CA3ADA3BEA327
:100F40006BA17CA18DA19EA120E030E040E85FE391
:100F50000E94790388232CF481E090E09AA389A36E
:100F60003FC06BA17CA18DA19EA120E03FEF4FE788
:100F700057E40E94190318164CF56FA178A589A5AE
:100F80009AA520E030E040E251E40E941F02DC011B
:100F9000CB01BC01CD010E944900DC01CB019AA329
:100FA00089A30FC088EC90E098A38F8F8F8D98A1B4
:100FB0000197F1F798A38F8F89A19AA101979AA31E
:100FC00089A389A19AA1009769F714C06BA17CA19C
:100FD0008DA19EA10E944900DC01CB019AA389A3A7
:100FE00089A19AA19E8F8D8F8D8D9E8D0197F1F78E
:100FF0009E8F8D8F89AD982F917081E060E0492F91
:101000000E94171A89AD8695982F917081E061E052
:10101000492F0E94171A89AD86958695982F917051
:1010200081E062E0492F0E94171A89AD8695869566
:101030008695982F917081E064E0492F0E94171ADD
:1010400080E062E041E00E94171A80E090E0A0E0BA
:10105000B0E4898F9A8FAB8FBC8F698D7A8D8B8D21
:101060009C8D20E030E04AEF54E40E941F02DC0136
:10107000CB018D8B9E8BAF8BB88F6D897E898F89CD
:10108000988D20E030E040E85FE30E9479038823F8
:101090002CF481E090E09C8B8B8B3FC06D897E8926
:1010A0008F89988D20E03FEF4FE757E40E941903A6
:1010B00018164CF5698D7A8D8B8D9C8D20E030E073
:1010C00040E251E40E941F02DC01CB01BC01CD01D2
:1010D0000E944900DC01CB019C8B8B8B0FC088ECFC
:1010E00090E09A8B898B89899A890197F1F79A8B7D
:1010F000898B8B899C8901979C8B8B8B8B899C8995
:10110000009769F714C06D897E898F89988D0E9438
:101110004900DC01CB019C8B8B8B8B899C89988B44
:101120008F878F8598890197F1F7988B8F8780E05B
:1011300062E040E00E94171A80E090E0A0EAB0E48C
:101140008B879C87AD87BE876B857C858D859E85CB
:1011500020E030E04AEF54E40E941F02DC01CB01A2
:101160008F839887A987BA876F81788589859A85C3
:1011700020E030E040E85FE30E94790388232CF40C
:1011800081E090E09E838D833FC06F817885898563
:101190009A8520E03FEF4FE757E40E9419031816A5
:1011A0004CF56B857C858D859E8520E030E040E2A6
:1011B00051E40E941F02DC01CB01BC01CD010E9461
:1011C0004900DC01CB019E838D830FC088EC90E049
:1011D0009C838B838B819C810197F1F79C838B830C
:1011E0008D819E8101979E838D838D819E81009745
:1011F00069F714C06F81788589859A850E944900B6
:10120000DC01CB019E838D838D819E819A838983AE
:1012100089819A810197F1F79A838983E9960FB6BC
:10122000F894DEBF0FBECDBFCF91DF910895DF935D
:10123000CF93CDB7DEB7E9970FB6F894DEBF0FBEF8
:10124000CDBF89AF80E063E041E00E94171A89AD0D
:1012500082958F70982F917081E060E0492F0E94F5
:10126000171A89AD829586958770982F917081E0C5
:1012700061E0492F0E94171A89AD8295869586955F
:101280008370982F917081E062E0492F0E94171AB5
:1012900089AD982F991F9927991F81E064E0492F04
:1012A0000E94171A80E062E041E00E94171A80E075
:1012B00090E0A0E0B0E48DAB9EABAFABB8AF6DA952
:1012C0007EA98FA998AD20E030E04AEF54E40E9457
:1012D0001F02DC01CB0189AB9AABABABBCAB69A9FC
:1012E0007AA98BA99CA920E030E040E85FE30E9446
:1012F000790388232CF481E090E098AB8FA73FC05E
:1013000069A97AA98BA99CA920E03FEF4FE757E490
:101310000E94190318164CF56DA97EA98FA998ADE6
:1013200020E030E040E251E40E941F02DC01CB01EA
:10133000BC01CD010E944900DC01CB0198AB8FA715
:101340000FC088EC90E09EA78DA78DA59EA5019764
:10135000F1F79EA78DA78FA598A9019798AB8FA7A6
:101360008FA598A9009769F714C069A97AA98BA9D4
:101370009CA90E944900DC01CB0198AB8FA78FA5E7
:1013800098A99CA78BA78BA59CA50197F1F79CA773
:101390008BA780E062E040E00E94171A80E090E0B6
:1013A000A0EAB0E48FA398A7A9A7BAA76FA178A5D0
:1013B00089A59AA520E030E04AEF54E40E941F027C
:1013C000DC01CB018BA39CA3ADA3BEA36BA17CA12D
:1013D0008DA19EA120E030E040E85FE30E94790308
:1013E00088232CF481E090E09AA389A33FC06BA1ED
:1013F0007CA18DA19EA120E03FEF4FE757E40E9422
:10140000190318164CF56FA178A589A59AA520E0B7
:1014100030E040E251E40E941F02DC01CB01BC013C
:10142000CD010E944900DC01CB019AA389A30FC022
:1014300088EC90E098A38F8F8F8D98A10197F1F79A
:1014400098A38F8F89A19AA101979AA389A389A1B3
:101450009AA1009769F714C06BA17CA18DA19EA1F0
:101460000E944900DC01CB019AA389A389A19AA11A
:101470009E8F8D8F8D8D9E8D0197F1F79E8F8D8F15
:1014800089AD982F917081E060E0492F0E94171A72
:1014900089AD8695982F917081E061E0492F0E9477
:1014A000171A89AD86958695982F917081E062E034
:1014B000492F0E94171A89AD869586958695982F93
:1014C000917081E064E0492F0E94171A80E062E089
:1014D00041E00E94171A80E090E0A0E0B0E4898F1C
:1014E0009A8FAB8FBC8F698D7A8D8B8D9C8D20E010
:1014F00030E04AEF54E40E941F02DC01CB018D8BE7
:101500009E8BAF8BB88F6D897E898F89988D20E0F7
:1015100030E040E85FE30E94790388232CF481E007
:1015200090E09C8B8B8B3FC06D897E898F89988DD5
:1015300020E03FEF4FE757E40E94190318164CF5DF
:10154000698D7A8D8B8D9C8D20E030E040E251E4F6
:101550000E941F02DC01CB01BC01CD010E944900A9
:10156000DC01CB019C8B8B8B0FC088EC90E09A8BBD
:10157000898B89899A890197F1F79A8B898B8B8955
:101580009C8901979C8B8B8B8B899C89009769F731
:1015900014C06D897E898F89988D0E944900DC0175
:1015A000CB019C8B8B8B8B899C89988B8F878F85AC
:1015B00098890197F1F7988B8F8780E062E040E08F
:1015C0000E94171A80E090E0A0EAB0E48B879C8725
:1015D000AD87BE876B857C858D859E8520E030E05C
:1015E0004AEF54E40E941F02DC01CB018F839887ED
:1015F000A987BA876F81788589859A8520E030E050
:1016000040E85FE30E94790388232CF481E090E0B6
:101610009E838D833FC06F81788589859A8520E080
:101620003FEF4FE757E40E94190318164CF56B85FE
:101630007C858D859E8520E030E040E251E40E946B
:101640001F02DC01CB01BC01CD010E944900DC017D
:10165000CB019E838D830FC088EC90E09C838B83AD
:101660008B819C810197F1F79C838B838D819E8177
:1016700001979E838D838D819E81009769F714C0A9
:101680006F81788589859A850E944900DC01CB01AC
:101690009E838D838D819E819A83898389819A819E
:1016A0000197F1F79A838983E9960FB6F894DEBF24
:1016B0000FBECDBFCF91DF910895DF93CF93CDB70C
:1016C000DEB7E8970FB6F894DEBF0FBECDBF80E05F
:1016D00063E041E00E94051980E062E041E00E9481
:1016E000051981E06FEF0E94871C80E090E0A0E286
:1016F000B2E48DAB9EABAFABB8AF6DA97EA98FA99D
:1017000098AD20E030E04AEF54E40E941F02DC0173
:10171000CB0189AB9AABABABBCAB69A97AA98BA95E
:101720009CA920E030E040E85FE30E947903882331
:101730002CF481E090E098AB8FA73FC069A97AA90B
:101740008BA99CA920E03FEF4FE757E40E941903C3
:1017500018164CF56DA97EA98FA998AD20E030E050
:1017600040E251E40E941F02DC01CB01BC01CD012B
:101770000E944900DC01CB0198AB8FA70FC088EC19
:1017800090E09EA78DA78DA59EA50197F1F79EA736
:101790008DA78FA598A9019798AB8FA78FA598A91A
:1017A000009769F714C069A97AA98BA99CA90E941E
:1017B0004900DC01CB0198AB8FA78FA598A99CA706
:1017C0008BA78BA59CA50197F1F79CA78BA783E31B
:1017D0000E94D10682E30E94D10688E20E94D106CF
:1017E00080E090E0A0E8BFE38FA398A7A9A7BAA7DD
:1017F0006FA178A589A59AA520E030E04AEF54E4CE
:101800000E941F02DC01CB018BA39CA3ADA3BEA34E
:101810006BA17CA18DA19EA120E030E040E85FE3B8
:101820000E94790388232CF481E090E09AA389A395
:101830003FC06BA17CA18DA19EA120E03FEF4FE7AF
:1018400057E40E94190318164CF56FA178A589A5D5
:101850009AA520E030E040E251E40E941F02DC0142
:10186000CB01BC01CD010E944900DC01CB019AA350
:1018700089A30FC088EC90E098A38F8F8F8D98A1DB
:101880000197F1F798A38F8F89A19AA101979AA345
:1018900089A389A19AA1009769F714C06BA17CA1C3
:1018A0008DA19EA10E944900DC01CB019AA389A3CE
:1018B00089A19AA19E8F8D8F8D8D9E8D0197F1F7B5
:1018C0009E8F8D8F8CE00E94D10680E090E0A0E09A
:1018D000B0E4898F9A8FAB8FBC8F698D7A8D8B8D99
:1018E0009C8D20E030E04AEF54E40E941F02DC01AE
:1018F000CB018D8B9E8BAF8BB88F6D897E898F8945
:10190000988D20E030E040E85FE30E94790388236F
:101910002CF481E090E09C8B8B8B3FC06D897E899D
:101920008F89988D20E03FEF4FE757E40E9419031D
:1019300018164CF5698D7A8D8B8D9C8D20E030E0EA
:1019400040E251E40E941F02DC01CB01BC01CD0149
:101950000E944900DC01CB019C8B8B8B0FC088EC73
:1019600090E09A8B898B89899A890197F1F79A8BF4
:10197000898B8B899C8901979C8B8B8B8B899C890C
:10198000009769F714C06D897E898F89988D0E94B0
:101990004900DC01CB019C8B8B8B8B899C89988BBC
:1019A0008F878F8598890197F1F7988B8F8782E0D1
:1019B0000E94D10680E090E0A0E8BFE38B879C877F
:1019C000AD87BE876B857C858D859E8520E030E068
:1019D0004AEF54E40E941F02DC01CB018F839887F9
:1019E000A987BA876F81788589859A8520E030E05C
:1019F00040E85FE30E94790388232CF481E090E0C3
:101A00009E838D833FC06F81788589859A8520E08C
:101A10003FEF4FE757E40E94190318164CF56B850A
:101A20007C858D859E8520E030E040E251E40E9477
:101A30001F02DC01CB01BC01CD010E944900DC0189
:101A4000CB019E838D830FC088EC90E09C838B83B9
:101A50008B819C810197F1F79C838B838D819E8183
:101A600001979E838D838D819E81009769F714C0B5
:101A70006F81788589859A850E944900DC01CB01B8
:101A80009E838D838D819E819A83898389819A81AA
:101A90000197F1F79A83898381E00E94D106E89645
:101AA0000FB6F894DEBF0FBECDBFCF91DF91089582
:101AB000DF93CF9300D00F92CDB7DEB78A836B83CD
:101AC0008A81882319F48B81898314C08A818130AB
:101AD00021F48B81805C89830DC08A81823021F45E
:101AE0008B818C5E898306C08A81833019F48B8157
:101AF0008C5A8983898180580E94D1060F900F905B
:101B00000F90CF91DF910895DF93CF9300D00F9284
:101B1000CDB7DEB79B838A8319820EC08981282FB7
:101B200030E08A819B81FC01E20FF31F80810E94DB
:101B3000170989818F5F89838981282F30E08A8105
:101B40009B81FC01E20FF31F8081882339F70F90FE
:101B50000F900F90CF91DF910895DF93CF93CDB782
:101B6000DEB727970FB6F894DEBF0FBECDBF6C83EC
:101B70007D838E839F831A828C819D81AE81BF81FC
:101B80000097A105B105B9F5809178000E94170969
:101B90004EC08C819D81AE81BF812AE030E040E063
:101BA00050E0BC01CD010E94BC1DDC01CB018B8348
:101BB0008C819D81AE81BF812AE030E040E050E021
:101BC000BC01CD010E94BC1DDA01C9018C839D833B
:101BD000AE83BF838A81282F30E08B81882F90E0ED
:101BE000FC01E858FF4F8081F901E857FF4F8083DF
:101BF0008A818F5F8A838C819D81AE81BF810097AE
:101C0000A105B10531F68A81815089830DC0898192
:101C1000992787FD9095FC01E857FF4F80810E942E
:101C200017098981815089838981882384F72796C0
:101C30000FB6F894DEBF0FBECDBFCF91DF910895F0
:101C4000DF93CF93CDB7DEB727970FB6F894DEBFFB
:101C50000FBECDBF9C838B836D834E832F838D817D
:101C6000882F90E00896880F991F880F991F880F7A
:101C7000991F0E94D1061A8219820FC029813A81C8
:101C80008B819C81FC01E20FF31F80810E94170968
:101C900089819A8101969A83898389819A81883082
:101CA000910564F38E816F810E94580D8D810E9491
:101CB000170927960FB6F894DEBF0FBECDBFCF91A0
:101CC000DF910895DF93CF93CDB7DEB781E00E9417
:101CD000D106CF91DF9108950F931F93DF93CF9398
:101CE000CDB7DEB7C456D0400FB6F894DEBF0FBEF6
:101CF000CDBF0E945D0B0E94A305CE01885A9F4F65
:101D0000A2969FAF8EAFA29722E830E0A4963FAF95
:101D10002EAFA49736E0A5963FAFA597A496EEAD5B
:101D2000FFADA4970080A4962EAD3FADA4972F5F82
:101D30003F4FA4963FAF2EAFA497A296EEADFFAD56
:101D4000A2970082A2962EAD3FADA2972F5F3F4F84
:101D5000A2963FAF2EAFA297A5963FADA597315063
:101D6000A5963FAFA597A5968FADA5978823B1F609
:101D7000FE01EB5AFF4F1082FE01EB5AFF4F8081AC
:101D8000082F10E00E94FA05282FCE01885A9F4F95
:101D9000FC01E00FF11F2083FE01EB5AFF4F808111
:101DA000282F30E0CE01885A9F4FFC01E20FF31F2D
:101DB0008081843109F3FE01EB5AFF4F8081282F87
:101DC00030E0CE01885A9F4FFC01E20FF31F808163
:101DD000813409F44BC0FE01EB5AFF4F8081282F5C
:101DE00030E0CE01885A9F4FFC01E20FF31F808143
:101DF0008D33E1F1FE01EB5AFF4F8081282F30E057
:101E0000CE01885A9F4FFC01E20FF31F80818B3275
:101E100069F1FE01EB5AFF4F8081282F30E0CE019F
:101E2000885A9F4FFC01E20FF31F80818D32F1F041
:101E3000FE01EB5AFF4F8081282F30E0CE01885AF7
:101E40009F4FFC01E20FF31F80818A3279F0FE017F
:101E5000EB5AFF4F8081282F30E0CE01885A9F4FE8
:101E6000FC01E20FF31F80818F3219F40E94620E91
:101E700040CFFE01EB5AFF4F8081282F30E0CE018A
:101E8000885A9F4FFC01E20FF31F80810E941709BF
:101E9000DE01AB5ABF4FFE01EB5AFF4F80818F5FCF
:101EA0008C93FE01EF5AFF4F80E090E0A6E9B3E487
:101EB00080839183A283B3838E01035B1F4FFE0156
:101EC000EF5AFF4F608171818281938120E030E081
:101ED0004AEF54E40E941F02DC01CB01F801808329
:101EE0009183A283B383FE01E35BFF4F6081718125
:101EF0008281938120E030E040E85FE30E94790333
:101F0000882344F4FE01E55BFF4F81E090E091837C
:101F1000808364C0FE01E35BFF4F60817181828139
:101F2000938120E03FEF4FE757E40E941903181612
:101F30000CF043C0FE01EF5AFF4F60817181828136
:101F4000938120E030E040E251E40E941F02DC0176
:101F5000CB018E01055B1F4FBC01CD010E944900E2
:101F6000DC01CB01F801918380831FC0FE01E75B98
:101F7000FF4F88EC90E091838083FE01E75BFF4F89
:101F8000808191810197F1F7FE01E75BFF4F91831B
:101F90008083DE01A55BBF4FFE01E55BFF4F8081C3
:101FA0009181019711969C938E93FE01E55BFF4F03
:101FB000808191810097D1F627C08E01055B1F4F6C
:101FC000FE01E35BFF4F60817181828193810E94FA
:101FD0004900DC01CB01F80191838083DE01A95B1C
:101FE000BF4FFE01E55BFF4F808191818D939C93F4
:101FF000FE01E95BFF4F808191810197F1F7FE01BE
:10200000E95BFF4F91838083FE01EB5AFF4F808194
:10201000082F10E00E94FA05282FCE01885A9F4F02
:10202000FC01E00FF11F2083FE01EB5AFF4F80817E
:10203000282F30E0CE01885A9F4FFC01E20FF31F9A
:102040008081843109F3FE01EB5AFF4F8081282FF4
:1020500030E0CE01885A9F4FFC01E20FF31F8081D0
:10206000813409F44BC0FE01EB5AFF4F8081282FC9
:1020700030E0CE01885A9F4FFC01E20FF31F8081B0
:102080008D33E1F1FE01EB5AFF4F8081282F30E0C4
:10209000CE01885A9F4FFC01E20FF31F80818B32E3
:1020A00069F1FE01EB5AFF4F8081282F30E0CE010D
:1020B000885A9F4FFC01E20FF31F80818D32F1F0AF
:1020C000FE01EB5AFF4F8081282F30E0CE01885A65
:1020D0009F4FFC01E20FF31F80818A3279F0FE01ED
:1020E000EB5AFF4F8081282F30E0CE01885A9F4F56
:1020F000FC01E20FF31F80818F3219F40E94620EFF
:10210000F8CDFE01EB5AFF4F8081282F30E0CE0141
:10211000885A9F4FFC01E20FF31F80810E9417092C
:10212000DE01AB5ABF4FFE01EB5AFF4F80818F5F3C
:102130008C93FE01ED5BFF4F80E090E0A6E9B3E4F5
:1021400080839183A283B3838E01015C1F4FFE01C4
:10215000ED5BFF4F608171818281938120E030E0EF
:102160004AEF54E40E941F02DC01CB01F801808396
:102170009183A283B383FE01FF9660817181828186
:10218000938120E030E040E85FE30E9479038823F8
:102190002CF481E090E09EAF8DAF46C0FE01FF962B
:1021A000608171818281938120E03FEF4FE757E4A6
:1021B0000E941903181664F5FE01ED5BFF4F608164
:1021C00071818281938120E030E040E251E40E94FD
:1021D0001F02DC01CB01BC01CD010E944900DC01E2
:1021E000CB019EAF8DAF0FC088EC90E09CAF8BAF62
:1021F0008BAD9CAD0197F1F79CAF8BAF8DAD9EADD4
:1022000001979EAF8DAF8DAD9EAD009769F716C05B
:10221000FE01FF9660817181828193810E94490055
:10222000DC01CB019EAF8DAF8DAD9EAD9AAF89AF76
:1022300089AD9AAD0197F1F79AAF89AFFE01EB5ADC
:10224000FF4F8081082F10E00E94FA05282FCE0151
:10225000885A9F4FFC01E00FF11F2083FE01EB5ACB
:10226000FF4F8081282F30E0CE01885A9F4FFC011C
:10227000E20FF31F8081843109F3FE01EB5AFF4F17
:102280008081282F30E0CE01885A9F4FFC01E20F59
:10229000F31F8081813479F0FE01EB5AFF4F80817A
:1022A000282F30E0CE01885A9F4FFC01E20FF31F28
:1022B00080818D3319F40E94620E1BCDFE01EB5A12
:1022C000FF4F8081282F30E0CE01885A9F4FFC01BC
:1022D000E20FF31F80810E941709DE01AB5ABF4F46
:1022E000FE01EB5AFF4F80818F5F8C9380E090E07E
:1022F000A6E9B3E48DAB9EABAFABB8AF6DA97EA939
:102300008FA998AD20E030E04AEF54E40E941F020C
:10231000DC01CB0189AB9AABABABBCAB69A97AA9A9
:102320008BA99CA920E030E040E85FE30E9479039C
:1023300088232CF481E090E098AB8FA73FC069A977
:102340007AA98BA99CA920E03FEF4FE757E40E94B0
:10235000190318164CF56DA97EA98FA998AD20E038
:1023600030E040E251E40E941F02DC01CB01BC01DD
:10237000CD010E944900DC01CB0198AB8FA70FC0B3
:1023800088EC90E09EA78DA78DA59EA50197F1F7FB
:102390009EA78DA78FA598A9019798AB8FA78FA50A
:1023A00098A9009769F714C069A97AA98BA99CA973
:1023B0000E944900DC01CB0198AB8FA78FA598A99B
:1023C0009CA78BA78BA59CA50197F1F79CA78BA732
:1023D000FE01EB5AFF4F8081082F10E00E94FA05A2
:1023E000282FCE01885A9F4FFC01E00FF11F208358
:1023F000FE01EB5AFF4F8081282F30E0CE01885A32
:102400009F4FFC01E20FF31F8081843109F3FE012D
:10241000EB5AFF4F8081282F30E0CE01885A9F4F22
:10242000FC01E20FF31F8081813409F44BC0FE01EF
:10243000EB5AFF4F8081282F30E0CE01885A9F4F02
:10244000FC01E20FF31F80818D33E1F1FE01EB5AB5
:10245000FF4F8081282F30E0CE01885A9F4FFC012A
:10246000E20FF31F80818B3269F1FE01EB5AFF4FBF
:102470008081282F30E0CE01885A9F4FFC01E20F67
:10248000F31F80818D32F1F0FE01EB5AFF4F808106
:10249000282F30E0CE01885A9F4FFC01E20FF31F36
:1024A00080818A3279F0FE01EB5AFF4F8081282F1C
:1024B00030E0CE01885A9F4FFC01E20FF31F80816C
:1024C0008F3219F40E94620E14CCFE01EB5AFF4FBA
:1024D0008081282F30E0CE01885A9F4FFC01E20F07
:1024E000F31F80810E941709DE01AB5ABF4FFE0126
:1024F000EB5AFF4F80818F5F8C9380E090E0A6E9DC
:10250000B3E48FA398A7A9A7BAA76FA178A589A5B7
:102510009AA520E030E04AEF54E40E941F02DC015B
:10252000CB018BA39CA3ADA3BEA36BA17CA18DA16A
:102530009EA120E030E040E85FE30E947903882319
:102540002CF481E090E09AA389A33FC06BA17CA109
:102550008DA19EA120E03FEF4FE757E40E941903B1
:1025600018164CF56FA178A589A59AA520E030E052
:1025700040E251E40E941F02DC01CB01BC01CD010D
:102580000E944900DC01CB019AA389A30FC088EC0B
:1025900090E098A38F8F8F8D98A10197F1F798A362
:1025A0008F8F89A19AA101979AA389A389A19AA142
:1025B000009769F714C06BA17CA18DA19EA10E9418
:1025C0004900DC01CB019AA389A389A19AA19E8F1E
:1025D0008D8F8D8D9E8D0197F1F79E8F8D8FFE01D2
:1025E000EB5AFF4F8081082F10E00E94FA05282F38
:1025F000CE01885A9F4FFC01E00FF11F2083FE019E
:10260000EB5AFF4F8081282F30E0CE01885A9F4F30
:10261000FC01E20FF31F8081843109F3FE01EB5AC4
:10262000FF4F8081282F30E0CE01885A9F4FFC0158
:10263000E20FF31F8081813409F44BC0FE01EB5A95
:10264000FF4F8081282F30E0CE01885A9F4FFC0138
:10265000E20FF31F80818D33E1F1FE01EB5AFF4F52
:102660008081282F30E0CE01885A9F4FFC01E20F75
:10267000F31F80818B3269F1FE01EB5AFF4F80819D
:10268000282F30E0CE01885A9F4FFC01E20FF31F44
:1026900080818D32F1F0FE01EB5AFF4F8081282FAF
:1026A00030E0CE01885A9F4FFC01E20FF31F80817A
:1026B0008A3279F0FE01EB5AFF4F8081282F30E0FB
:1026C000CE01885A9F4FFC01E20FF31F80818F32A9
:1026D00019F40E94620E0DCBFE01EB5AFF4F808170
:1026E000282F30E0CE01885A9F4FFC01E20FF31FE4
:1026F00080810E941709DE01AB5ABF4FFE01EB5AE1
:10270000FF4F80818F5F8C9380E090E0A6E9B3E477
:10271000898F9A8FAB8FBC8F698D7A8D8B8D9C8DB5
:1027200020E030E04AEF54E40E941F02DC01CB01BC
:102730008D8B9E8BAF8BB88F6D897E898F89988D9D
:1027400020E030E040E85FE30E94790388232CF426
:1027500081E090E09C8B8B8B3FC06D897E898F8957
:10276000988D20E03FEF4FE757E40E9419031816B9
:102770004CF5698D7A8D8B8D9C8D20E030E040E2A8
:1027800051E40E941F02DC01CB01BC01CD010E947B
:102790004900DC01CB019C8B8B8B0FC088EC90E057
:1027A0009A8B898B89899A890197F1F79A8B898B02
:1027B0008B899C8901979C8B8B8B8B899C8900973B
:1027C00069F714C06D897E898F89988D0E944900B0
:1027D000DC01CB019C8B8B8B8B899C89988B8F87A1
:1027E0008F8598890197F1F7988B8F87FE01EB5AB7
:1027F000FF4F8081082F10E00E94FA05282FCE019C
:10280000885A9F4FFC01E00FF11F2083FE01EB5A15
:10281000FF4F8081282F30E0CE01885A9F4FFC0166
:10282000E20FF31F8081843109F3FE01EB5AFF4F61
:102830008081282F30E0CE01885A9F4FFC01E20FA3
:10284000F31F80818D3309F0DCC4FE01EB5AFF4F8A
:102850008081282F30E0CE01885A9F4FFC01E20F83
:10286000F31F80810E941709FE01EB5AFF4F808100
:10287000882F90E09C0123503040CE01885A9F4F12
:10288000FC01E20FF31F8081282F30E0A0963FAFBC
:102890002EAFA097A0968EAD9FADA0978B329105DD
:1028A00009F1A096EEADFFADA097EC32F1054CF426
:1028B000A0962EAD3FADA0972A32310509F4F2C1A2
:1028C0002BC4A0968EAD9FADA0978D32910509F4D3
:1028D000F5C0A096EEADFFADA097EF32F10509F47B
:1028E0002BC31AC4FE01EB5AFF4F8081882F90E062
:1028F0009C0124503040CE01885A9F4FFC01E20FCA
:10290000F31F8081882F90E0AC0140535040FE01BE
:10291000EB5AFF4F8081882F90E09C01255030407A
:10292000CE01885A9F4FFC01E20FF31F8081882F50
:1029300090E09C01220F331FC901880F991F880F57
:10294000991F820F931F805E9140480F591FFE010F
:10295000EB5AFF4F8081882F90E09C01225030403D
:10296000CE01885A9F4FFC01E20FF31F8081882F10
:1029700090E09C01220F331FC901880F991F880F17
:10298000991F820F931F805E9140480F591FFE01CF
:10299000EB5AFF4F8081882F90E09C0121503040FE
:1029A000CE01885A9F4FFC01E20FF31F8081882FD0
:1029B00090E0C097840F951FFE01EA5AFF4F918364
:1029C0008083FE01EA5AFF4F808191818436910510
:1029D000C0F1FE01EA5AFF4F80819181F3E0883E09
:1029E0009F0778F5FE01EA5AFF4F8081918124E626
:1029F00030E0B9010E94951DCB01805D0E9417094E
:102A0000FE01EA5AFF4F808191812AE030E0B9014E
:102A10000E94951DCB012AE030E0B9010E94951D6E
:102A2000805D0E941709FE01EA5AFF4F8081918163
:102A30002AE030E0B9010E94951D805D0E941709CF
:102A40006BC3FE01EA5AFF4F808191818A30910564
:102A500020F1FE01EA5AFF4F808191818436910571
:102A6000E0F4FE01EA5AFF4F808191812AE030E0D4
:102A7000B9010E94951DCB01805D0E941709FE01DE
:102A8000EA5AFF4F808191812AE030E0B9010E942B
:102A9000951D805D0E9417093FC3FE01EA5AFF4F52
:102AA000808191818A30910508F036C3FE01EA5A8F
:102AB000FF4F8081805D0E9417092EC3FE01EB5AF3
:102AC000FF4F8081882F90E09C0124503040CE0140
:102AD000885A9F4FFC01E20FF31F8081882F90E0FE
:102AE000AC0140535040FE01EB5AFF4F8081882FCC
:102AF00090E09C0125503040CE01885A9F4FFC0148
:102B0000E20FF31F8081882F90E09C01220F331F7A
:102B1000C901880F991F880F991F820F931F805E2C
:102B20009140BA01680F791FFE01EB5AFF4F808177
:102B3000882F90E09C0121503040CE01885A9F4F51
:102B4000FC01E20FF31F8081282F30E080E390E04A
:102B5000AC01421B530BFE01EB5AFF4F8081882FC3
:102B600090E09C0122503040CE01885A9F4FFC01DA
:102B7000E20FF31F8081882F90E09C01220F331F0A
:102B8000C901880F991F880F991F820F931F909575
:102B900081959F4F80529E4F840F951F860F971FE0
:102BA000FE01EA5AFF4F91838083FE01EA5AFF4FEC
:102BB0008081918184369105C0F1FE01EA5AFF4F70
:102BC0008081918123E0883E920778F5FE01EA5AE0
:102BD000FF4F8081918124E630E0B9010E94951D6C
:102BE000CB01805D0E941709FE01EA5AFF4F8081E8
:102BF00091812AE030E0B9010E94951DCB012AE0C5
:102C000030E0B9010E94951D805D0E941709FE0108
:102C1000EA5AFF4F808191812AE030E0B9010E9499
:102C2000951D805D0E94170977C2FE01EA5AFF4F89
:102C3000808191818A30910520F1FE01EA5AFF4F8F
:102C40008081918184369105E0F4FE01EA5AFF4FBC
:102C5000808191812AE030E0B9010E94951DCB016D
:102C6000805D0E941709FE01EA5AFF4F8081918121
:102C70002AE030E0B9010E94951D805D0E9417098D
:102C80004BC2FE01EA5AFF4F808191818A30910543
:102C900008F042C2FE01EA5AFF4F8081805D0E9427
:102CA00017093AC2FE01EB5AFF4F8081882F90E04E
:102CB0009C0124503040CE01885A9F4FFC01E20F06
:102CC000F31F8081882F90E0AC0140535040FE01FB
:102CD000EB5AFF4F8081882F90E09C0125503040B7
:102CE000CE01885A9F4FFC01E20FF31F8081882F8D
:102CF00090E09C01220F331FC901880F991F880F94
:102D0000991F820F931F805E9140BA01680F791F4F
:102D1000FE01EB5AFF4F8081882F90E09C012250EA
:102D20003040CE01885A9F4FFC01E20FF31F808193
:102D3000882F90E09C01220F331FC901880F991F33
:102D4000880F991F820F931FAC01405E5140FE0116
:102D5000EB5AFF4F8081882F90E09C01215030403A
:102D6000CE01885A9F4FFC01E20FF31F8081882F0C
:102D700090E0C097840F951FFC016E9FC0016F9F6C
:102D8000900D7E9F900D1124FE01EA5AFF4F918312
:102D90008083FE01EA5AFF4F80819181F3E0883EF3
:102DA0009F0708F44CC0FE01EA5AFF4F80819181D1
:102DB00027E28031920708F042C0FE01EA5AFF4F35
:102DC0008081918124E630E0B9010E94951DCB01FC
:102DD000805D0E941709FE01EA5AFF4F80819181B0
:102DE0002AE030E0B9010E94951DCB012AE030E0D5
:102DF000B9010E94951D805D0E941709FE01EA5AE3
:102E0000FF4F808191812AE030E0B9010E94951D39
:102E1000CB012AE030E0B9010E94951D805D0E943F
:102E20001709FE01EA5AFF4F808191812AE030E0C4
:102E3000B9010E94951D805D0E9417096DC1FE01B8
:102E4000EA5AFF4F8081918184369105C0F1FE01DD
:102E5000EA5AFF4F8081918133E0883E930778F5ED
:102E6000FE01EA5AFF4F8081918124E630E0B901EA
:102E70000E94951DCB01805D0E941709FE01EA5A50
:102E8000FF4F808191812AE030E0B9010E94951DB9
:102E9000CB012AE030E0B9010E94951D805D0E94BF
:102EA0001709FE01EA5AFF4F808191812AE030E044
:102EB000B9010E94951D805D0E9417092DC1FE0178
:102EC000EA5AFF4F808191818A30910520F1FE01FD
:102ED000EA5AFF4F8081918184369105E0F4FE012A
:102EE000EA5AFF4F808191812AE030E0B9010E94C7
:102EF000951DCB01805D0E941709FE01EA5AFF4F24
:102F0000808191812AE030E0B9010E94951D805DA9
:102F10000E94170901C1FE01EA5AFF4F8081918189
:102F20008A30910508F0F8C0FE01EA5AFF4F80810F
:102F3000805D0E941709F0C0FE01EB5AFF4F8081AF
:102F4000882F90E09C0124503040CE01885A9F4F3A
:102F5000FC01E20FF31F8081882F90E0AC01405309
:102F60005040FE01EB5AFF4F8081882F90E09C017A
:102F700025503040CE01885A9F4FFC01E20FF31FCD
:102F80008081882F90E09C01220F331FC901880F98
:102F9000991F880F991F820F931F805E9140BA017D
:102FA000680F791FFE01EB5AFF4F8081882F90E058
:102FB0009C0122503040CE01885A9F4FFC01E20F05
:102FC000F31F8081882F90E09C01220F331FC901DD
:102FD000880F991F880F991F820F931FAC01405EC5
:102FE0005140FE01EB5AFF4F8081882F90E09C01F9
:102FF00021503040CE01885A9F4FFC01E20FF31F51
:103000008081882F90E0C0979A01280F391FCB014B
:10301000B9010E94A91DCB01FE01EA5AFF4F91831D
:103020008083FE01EA5AFF4F8081918184369105A9
:10303000C0F1FE01EA5AFF4F80819181E3E0883EB2
:103040009E0778F5FE01EA5AFF4F8081918124E6C0
:1030500030E0B9010E94951DCB01805D0E941709E7
:10306000FE01EA5AFF4F808191812AE030E0B901E8
:103070000E94951DCB012AE030E0B9010E94951D08
:10308000805D0E941709FE01EA5AFF4F80819181FD
:103090002AE030E0B9010E94951D805D0E94170969
:1030A0003BC0FE01EA5AFF4F808191818A30910531
:1030B00020F1FE01EA5AFF4F80819181843691050B
:1030C000E0F4FE01EA5AFF4F808191812AE030E06E
:1030D000B9010E94951DCB01805D0E941709FE0178
:1030E000EA5AFF4F808191812AE030E0B9010E94C5
:1030F000951D805D0E9417090FC0FE01EA5AFF4F1F
:10310000808191818A30910538F4FE01EA5AFF4F9F
:103110008081805D0E94170980E090E0A8E4B3E41C
:103120008B879C87AD87BE876B857C858D859E85CB
:1031300020E030E04AEF54E40E941F02DC01CB01A2
:103140008F839887A987BA876F81788589859A85C3
:1031500020E030E040E85FE30E94790388232CF40C
:1031600081E090E09E838D8340C06F817885898562
:103170009A8520E03FEF4FE757E40E9419031816A5
:1031800054F56B857C858D859E8520E030E040E29E
:1031900051E40E941F02DC01CB01BC01CD010E9461
:1031A0004900DC01CB019E838D830FC088EC90E049
:1031B0009C838B838B819C810197F1F79C838B830C
:1031C0008D819E8101979E838D838D819E81009745
:1031D00069F70C94BC0E6F81788589859A850E9469
:1031E0004900DC01CB019E838D838D819E819A8372
:1031F000898389819A810197F1F79A8389830C9455
:10320000BC0E0E94620E0C94790EDF93CF93CDB763
:10321000DEB728970FB6F894DEBF0FBECDBF8A8306
:103220006B834C8319828B81883008F0F4C08C81C9
:10323000882309F077C08A81282F30E038872F83D0
:103240008F8198858130910559F12F813885223001
:1032500031052CF48F819885009769F060C02F812B
:1032600038852230310589F18F8198858330910529
:1032700009F440C054C0AAE3B0E0EAE3F0E0808182
:10328000482F8B81282F30E081E090E0022E02C091
:10329000880F991F0A94E2F7809584238C93BDC010
:1032A000A7E3B0E0E7E3F0E08081482F8B81282F8F
:1032B00030E081E090E0022E02C0880F991F0A944E
:1032C000E2F7809584238C93A8C0A4E3B0E0E4E304
:1032D000F0E08081482F8B81282F30E081E090E062
:1032E000022E02C0880F991F0A94E2F7809584236A
:1032F0008C9393C0A1E3B0E0E1E3F0E08081482F3C
:103300008B81282F30E081E090E0022E02C0880FF0
:10331000991F0A94E2F7809584238C937EC081E004
:1033200089837BC08C81813009F072C08A81282F0B
:1033300030E03E832D838D819E818130910549F15E
:103340002D813E81223031052CF48D819E810097A4
:1033500061F05BC02D813E812230310571F18D819C
:103360009E8183309105E9F150C0AAE3B0E0EAE321
:10337000F0E08081482F8B81282F30E081E090E0C1
:10338000022E02C0880F991F0A94E2F7842B8C93B7
:1033900044C0A7E3B0E0E7E3F0E08081482F8B81F1
:1033A000282F30E081E090E0022E02C0880F991FA4
:1033B0000A94E2F7842B8C9330C0A4E3B0E0E4E3FA
:1033C000F0E08081482F8B81282F30E081E090E071
:1033D000022E02C0880F991F0A94E2F7842B8C9367
:1033E0001CC0A1E3B0E0E1E3F0E08081482F8B81D5
:1033F000282F30E081E090E0022E02C0880F991F54
:103400000A94E2F7842B8C9308C081E0898305C07D
:1034100081E0898302C081E08983898128960FB683
:10342000F894DEBF0FBECDBFCF91DF910895DF933B
:10343000CF93CDB7DEB728970FB6F894DEBF0FBE97
:10344000CDBF8A836B834C8319828B81883008F0CF
:10345000F0C08C81813009F06EC08A81282F30E065
:1034600038872F838F8198858130910549F12F818D
:103470003885223031052CF48F819885009761F0D2
:103480005AC02F8138852230310571F18F8198859E
:1034900083309105E9F14FC0ABE3B0E0EBE3F0E03E
:1034A0008081482F8B81282F30E081E090E0022E30
:1034B00002C0880F991F0A94E2F7842B8C933BC0BB
:1034C000A8E3B0E0E8E3F0E08081482F8B81282F6B
:1034D00030E081E090E0022E02C0880F991F0A942C
:1034E000E2F7842B8C9327C0A5E3B0E0E5E3F0E09E
:1034F0008081482F8B81282F30E081E090E0022EE0
:1035000002C0880F991F0A94E2F7842B8C9313C092
:10351000A2E3B0E0E2E3F0E08081482F8B81282F26
:1035200030E081E090E0022E02C0880F991F0A94DB
:10353000E2F7842B8C938C81882309F077C08A81F1
:10354000282F30E03E832D838D819E81813091052F
:1035500059F12D813E81223031052CF48D819E81DF
:10356000009769F060C02D813E812230310589F1DC
:103570008D819E818330910509F440C054C0ABE336
:10358000B0E0EBE3F0E08081482F8B81282F30E022
:1035900081E090E0022E02C0880F991F0A94E2F7A2
:1035A000809584238C9347C0A8E3B0E0E8E3F0E083
:1035B0008081482F8B81282F30E081E090E0022E1F
:1035C00002C0880F991F0A94E2F7809584238C9398
:1035D00032C0A5E3B0E0E5E3F0E08081482F8B81C5
:1035E000282F30E081E090E0022E02C0880F991F62
:1035F0000A94E2F7809584238C931DC0A2E3B0E087
:10360000E2E3F0E08081482F8B81282F30E081E0D9
:1036100090E0022E02C0880F991F0A94E2F780956D
:1036200084238C9308C081E0898305C081E089836D
:1036300002C081E08983898128960FB6F894DEBFA5
:103640000FBECDBFCF91DF910895DF93CF93CDB75C
:10365000DEB727970FB6F894DEBF0FBECDBF8A83C3
:103660006B835D834C8319828B81883008F074C032
:103670008A81282F30E03F832E834E815F81413045
:10368000510559F18E819F818230910534F42E814C
:103690003F812115310569F05CC04E815F81423068
:1036A000510579F18E819F818330910509F43DC0E8
:1036B00050C0E9E3F0E08081282F30E08B81882F33
:1036C00090E0A90102C0559547958A95E2F7CA0195
:1036D0008170EC81FD81808341C0E6E3F0E0808170
:1036E000282F30E08B81882F90E0A90102C05595EA
:1036F00047958A95E2F7CA018170EC81FD8180834C
:103700002DC0E3E3F0E08081282F30E08B81882F0B
:1037100090E0A90102C0559547958A95E2F7CA0144
:103720008170EC81FD81808319C0E0E3F0E080814D
:10373000282F30E08B81882F90E0A90102C0559599
:1037400047958A95E2F7CA018170EC81FD818083FB
:1037500005C081E0898302C081E089838981279641
:103760000FB6F894DEBF0FBECDBFCF91DF910895A5
:10377000DF93CF9300D000D00F92CDB7DEB78A830E
:103780006B8319828A81282F30E03D832C838C81C2
:103790009D818130910509F43DC02C813D8122300D
:1037A00031052CF48C819D81009771F0A5C02C818E
:1037B0003D812230310509F453C08C819D818330D5
:1037C000910509F473C098C0AAE3B0E0EAE3F0E021
:1037D0008081482F8B81282F30E081E090E002C06B
:1037E000880F991F2A95E2F7842B8C93ABE3B0E006
:1037F000EBE3F0E08081482F8B81282F30E081E0DF
:1038000090E0022E02C0880F991F0A94E2F78427E5
:103810008C9374C0A7E3B0E0E7E3F0E08081482F29
:103820008B81282F30E081E090E002C0880F991F43
:103830002A95E2F7842B8C93A8E3B0E0E8E3F0E06C
:103840008081482F8B81282F30E081E090E0022E8C
:1038500002C0880F991F0A94E2F784278C934EC008
:10386000A4E3B0E0E4E3F0E08081482F8B81282FCF
:1038700030E081E090E002C0880F991F2A95E2F7BE
:10388000842B8C93A5E3B0E0E5E3F0E08081482F42
:103890008B81282F30E081E090E0022E02C0880F5B
:1038A000991F0A94E2F784278C9328C0A1E3B0E023
:1038B000E1E3F0E08081482F8B81282F30E081E028
:1038C00090E002C0880F991F2A95E2F7842B8C9311
:1038D000A2E3B0E0E2E3F0E08081482F8B81282F63
:1038E00030E081E090E0022E02C0880F991F0A9418
:1038F000E2F784278C9302C081E0898389810F904D
:103900000F900F900F900F90CF91DF910895DF935C
:10391000CF93CDB7DEB727970FB6F894DEBF0FBEB3
:10392000CDBF8A836B8319828B81882391F58A812D
:10393000282F30E03F832E838E819F818130910537
:10394000C9F02E813F81223031052CF48E819F8178
:10395000009761F01BC02E813F812230310571F04C
:103960008E819F818330910569F010C0EAE3F0E019
:1039700010824AC0EAE3F0E0108246C0EAE3F0E0D9
:10398000108242C0EAE3F0E010823EC081E0898309
:103990003BC08B818F3FB1F58A81282F30E03D837A
:1039A0002C838C819D8181309105D1F02C813D81CA
:1039B000223031052CF48C819D81009761F01FC06D
:1039C0002C813D812230310581F08C819D818330B5
:1039D000910581F014C0EAE3F0E08FEF808314C01A
:1039E000EAE3F0E08FEF80830FC0EAE3F0E08FEFCF
:1039F00080830AC0EAE3F0E08FEF808305C081E0B6
:103A0000898302C081E08983898127960FB6F89463
:103A1000DEBF0FBECDBFCF91DF910895DF93CF936F
:103A2000CDB7DEB727970FB6F894DEBF0FBECDBF78
:103A30008A836B8319828B818F3FB1F58A81282F0E
:103A400030E03F832E838E819F8181309105D1F0BC
:103A50002E813F81223031052CF48E819F81009789
:103A600061F01FC02E813F812230310581F08E81AF
:103A70009F818330910581F014C0EBE3F0E08FEF7C
:103A8000808349C0E8E3F0E08FEF808344C0E5E342
:103A9000F0E08FEF80833FC0E2E3F0E08FEF8083C0
:103AA0003AC081E0898337C08B81882391F58A8170
:103AB000282F30E03D832C838C819D8181309105BE
:103AC000C9F02C813D81223031052CF48C819D81FF
:103AD000009761F01BC02C813D812230310571F0CF
:103AE0008C819D818330910569F010C0EBE3F0E09B
:103AF000108211C0E8E3F0E010820DC0E5E3F0E0D1
:103B0000108209C0E2E3F0E0108205C081E0898301
:103B100002C081E08983898127960FB6F894DEBFC1
:103B20000FBECDBFCF91DF910895AA1BBB1B51E102
:103B300007C0AA1FBB1FA617B70710F0A61BB70B1D
:103B4000881F991F5A95A9F780959095BC01CD01C2
:103B5000089597FB092E07260AD077FD04D0E5DFEC
:103B600006D000201AF4709561957F4F0895F6F7FE
:103B7000909581959F4F0895A1E21A2EAA1BBB1B19
:103B8000FD010DC0AA1FBB1FEE1FFF1FA217B30729
:103B9000E407F50720F0A21BB30BE40BF50B661F3F
:103BA000771F881F991F1A9469F760957095809503
:103BB00090959B01AC01BD01CF0108952F923F92DA
:103BC0004F925F926F927F928F929F92AF92BF922D
:103BD000CF92DF92EF92FF920F931F93CF93DF93D9
:103BE000CDB7DEB7CA1BDB0B0FB6F894DEBF0FBE36
:103BF000CDBF09942A88398848885F846E847D8483
:103C00008C849B84AA84B984C884DF80EE80FD8084
:103C10000C811B81AA81B981CE0FD11D0FB6F894FA
:0E3C2000DEBF0FBECDBFED010895F894FFCFBB
:103C2E0000000000000000003738392F3435362AE6
:103C3E003132332D41303D2B30313233343536373E
:083C4E00383914141414141485
:00000001FF
